:020000041000EA
:4000000000400208230100100D00000085010010000000000000000000000000000000000000000000000000000000008101001000000000000000008101001081010010E9
:400040008101001081010010810100108101001081010010810100108101001081010010810100108101001081010010810100108101001081010010810100108101001060
:400080008101001081010010810100108101001081010010810100108101001081010010810100108101001081010010810100108101001081010010810100108101001020
:4000C00010B5064C2378002B07D1054B002B02D0044800E000BF0123237010BDE006000800000000E4A50010084B10B5002B03D00749084800E000BF07480368002B00D1FD
:4001000010BD064B002BFBD09847F9E700000000E4060008E4A5001088010008000000007047FFF7FDFF72B60F4C104DAC4209DA21686268A368043B02DBC858D050FAE7DB
:400140000C34F3E70A490B4A0020521A02DD043A8850FCDC084809490860BFF34F8F00F003FC00F047FAFEE7E8A5001000A60010E0060008900B00080000000808ED00E004
:40018000FEE7FEE700B504207146084202D0EFF3098001E0EFF30880043003F0DFFBFEE74D4B00229B5E002B07DB1F21194001228A40C021490049484250494A0021515E37
:4001C000002907DB1F2211401E3A8A40C021490042484250434A0021515E002907DB1F2211401E3A8A40C02149003C4842503E4A0021515E002907DB1F2211401E3A8A4087
:40020000C021490035484250002B0BDB1F2213401E3A9A401300802230498B50BFF34F8FBFF36F8F2E4B00229A5E002A0ADB1F231A401E3B9340802228498B50BFF34F8F7D
:40024000BFF36F8F274B00229A5E002A0ADB1F231A401E3B9340802220498B50BFF34F8FBFF36F8F204B00229A5E002A0ADB1F231A401E3B9340802218498B50BFF34F8F7B
:40028000BFF36F8F194B832292009958184A1180E62252009958174A1180A32292009958154A1180932292009A5814490A800022822080001A5040381A50C0301A50403818
:4002C0001A5004325A607C325A607E3A5A60013A5A608A707047C046B88F001000E100E0C08F0010A88F0010B08F0010000038407C090008F8080008800A00080007000863
:4003000010B50549054802F0B7FAC303F9D4012003F0EAFA10BDC046040B000800006740F8B5104C2071231DE3600123236123750D4F260008360D4D3A003100280002F0A2
:4003400063FBFFF7DDFF23001833E360002323753A003100280002F091FAFFF7D1FF207EF8BDC04600070008040B00080000674010B5094B187159711A1DDA6002221A6169
:4003800000221A7508331900044A054802F03CFBFFF7B6FF10BDC04600070008040B00080000674070B50D20FFF7BAFF04000C20FFF7B6FF8009201A1930C0B205F0BEFE1E
:4003C0000A4A0B4B04F066F904000D00094A0A4B2000290005F0AEF808F026FC074A084B04F084FC074B1862596270BD6666666666127140F7FADCCE93542740BDEAE6CE78
:40040000EAC8C53F00070008F0B589B00E001700049305F0D5FE684B1C6A5D6A22002B0005F088F80022654B04F060FC02900391300005F0C5FE02000B002000290005F058
:4004400079F800225D4B04F051FC06900791380005F0B6FE02000B002000290005F06AF80022564B04F042FC06000F00049805F0A7FE02000B002000290005F05BF8002244
:400480004E4B04F033FC0490059100224C4B0298039904F0D7F8002807D10022484B0698079904F0CFF800280DD0464C1A222100454805F0DBFE1A222100444805F0D6FEF5
:4004C0001022434B9A6000223D4B0298039904F0CDF800281CD00022394B0698079904F0C5F8002814D0029B039C00930194394A1E21354806F0F2FB069B079C0093019402
:40050000354A1E21314806F0E9FB1022304B5A6000222B4B3000390004F094F8002807D10022274B0498059904F08CF800280DD02A4C1B2221002A4805F098FE1B22210048
:40054000284805F093FE1022214B9A6000221C4B3000390004F08AF800281AD00022184B0498059904F082F8002812D0009601971D4A1E211A4806F0B1FB049B059C009391
:4005800001941A4A1E21174806F0A8FB1022104B5A60174C0C49200001F0FEFA0B49200001F0FAFA0E49200001F0F6FA0D49200001F0F2FA09B0F0BD00070008004C0D41F0
:4005C00000002440FC8E0010000A00088009000800053240188F0010288F0010388F0010840A0008FC080008548F0010648F00100000664070B562B600F0C4FD03F0C0FEB1
:4006000003F006FF03F034FF03F01AFF03F0D0FE03F0E6FE03F044FF03F05AFF584C594D2100280003F0E4F82100574803F0E0F82100564803F0DCF82100554803F0D8F882
:400640000023EA5E002A05DB1F231A401E3B9340504A13604C4B00229A5E002A05DB1F231A401E3B93404B4A1360484B00229A5E002A05DB1F231A401E3B9340454A136024
:40068000434B00229A5E002A05DB1F231A401E3B9340404A1360404B1B68586800230222002106F06BFA00F027FD19223B4B1A721F20FFF735FE402149420143C9B21F207F
:4006C000FFF756FE2020FFF72BFE472301001943C9B22020FFF74CFE2320FFF721FE802149420143C9B22320FFF742FEFFF75AFE2A4B9B78002B3FD0284C2388284A128898
:400700002849098828480088FFF77EFE0023A3701C4B00229A5E002A05DB1F231A401E3B93401C4A1360184B00229A5E002A05DB1F231A401E3B9340164A1360134B002249
:400740009A5E002A05DB1F231A401E3B9340114A13600F4B00229A5E002A05DB1F231A401E3B93400B4A136003F022FE03F038FE03F096FE03F0ACFE502003F09BF8B5E7E1
:40078000A1010010B88F0010C08F0010A88F0010B08F001000E100E04001000800070008800A0008F80800087C09000810B5002001F04AF910BDC04670B56249E0239B00A1
:4007C000CB580F2213401A00D0329200525807210A40032A05D0042A06D0002A12D15A4814E05A4A106811E01A00C0329200554952581F210A40112A06D0132A04D0FA2026
:40080000C00103E0524801E080200002002B36D14C4BB222D2009A5801211140B125ED005A59120F032422405B591B0F1C4207D0444C63591B0F03242340012B02D102E00F
:40084000012300E00023002B01D0002901D1032A4BD13C4BB022D2009D58AD03AD0B3D495958C904C90C9C58240E01231C40013403F046FE6843210003F042FE35E0012B5E
:4008800033D1304BC822D2009A5801251540C024E4001A59120F03210A401B591B0F194207D028490B591B0F03210B40012B02D102E0012300E00023002B01D0002D01D185
:4008C000032A12D11F4DC022D200AB587F210B40A958090A1F263140AC58240C3440584303F00EFE210003F00BFEE0239B00154AD3581B0903221340D840144C6060164B54
:400900001D692D0AFC32154001351969090E013103F0F6FDA060290003F0F2FD0500E06020610E4BC0180E4903F0EAFD20750D4BE818FA21890003F0E3FDA061C003E061F4
:4009400070BDC0460000264000127A00C000000800366E0184050000000021403F420F0040420F00E703000010B5284803F066FB274CB022D200A3585B005B08A350E021A3
:400980008900635830208343635080235B04A350204A214BE250A02292010433E250FF221E4BE25003F038FBC0225200A35801218B43A35000F070FAFFF7FEFEB0235B05FC
:4009C0005B78002B04D0B0235B055B78DBB200E02123212B03D1124B0022DA605A60114C22008021042000F0D5FD2000103000F069FE0D4B1A685123D35C002B02D00B4851
:400A000000F0D6FE00F09EFC10BDC04618A000100000264001000200840500008C050000E000234028070008880B0008748F00108023024AD3580320184070470000214075
:400A400010B504002100034801F05EF80028F9D010BDC04600006640C2239B00034AD358DB05F9D0D0239B00D058704700006640FEE7C046F0B50025002711E0BB00C65836
:400A8000F3B2FF22964308E06A008A181478A419527822700135013BDBB2002BF4D10137012FEBD9F0BDC04610B50A00002105F0E6FB10BD10B505F0D9FB10BD30B587B026
:400AC000DD49A022D2008B58032083438B50DB4A116808688823CB58C3181868D849084018601368186884241B59C01803681B021B0A80256D042B430360106805680359B9
:400B0000EB1818680140196013683E229A5C002A06D0C948E02189004258753CA24342503E229A5C002A06D0C348E021890042583024A24342503E229B5C002B07D0BE499A
:400B4000E02292008B588020000603438B500021012002F097FC0021022002F093FC0021032002F08FFC0021042002F08BFC0021002002F087FC01A8B24903000A0032CACA
:400B800032C312CA12C302F0ABFC002802D00420FFF76EFFA849AC4A8B588020000603438B50AA4802F058FD002802D00420FFF75FFFA14CA64BE158A64A0A40E250E1587D
:400BC000A54A0A40E250E25880252D062A43E250043BE158A14A0A40E250E158A04A0A40802189010A43E250E258802109020A43E2509C4A11689C4B0B40802149000B43B5
:400C00001360002003F07EF9984BE2581543E550E158012291430A43E2506421002002F0B5FE864B1B683F229A5C052A06D970229A5C02210A408E49986842509A68742166
:400C40005B5AD21891687E4B0B408C2189010B4393607A4B1B6873229A5C0321914070229A5C7220185C140084402143022002400A43802109060A438021C9009868425014
:400C80009A6852583F229A5C062A06D970229A5C01210A407749986842509A6874215B5AD2185168664B0B40F82149010B435360624B1B6873229A5C0321914070229A5C55
:400CC0007220185C140084402143012002400A43802109060A438021C900986842509A6852583F229A5C132A0AD97122985C703A82401100032282400A405F499868425077
:400D00009A6876215B5AD21811685C4B0B405C490B431360494B1B6873229A5C0324210091400A007021585C0231595C8840104371229A5C01219140944022000A4002439C
:400D4000802109060A438021C900986842509A6852583F229A5C142A0BD97122985C703A82401100032282400A40C5210901986842503F229A5C152A0AD97122985C703AF4
:400D800082401100032282400A403E49986842503F229A5C162A03D900213B4A986881509A6874215B5AD2181168254B0B40C02189000B431360214B1B687322995C703A74
:400DC0008A40110070229A5C7220185C82400A43802109060A438021C900986842509A6852583F229A5C172A03D90021274A986881503F229A5C182A04D90021C62212016D
:400E0000986881503F229A5C192A03D90021204A986881503F229A5C1A2A0AD998687122995C01238B401A0003238B401340194A835007B030BDC04600002640880B0008DB
:400E4000FF00FFFFD88F0010087F0000400D030004050000FEFCFFFFFFFF00FFFFF0FFFFFF8FFFFF00002740FFFCFFFF0C050000140C0000180C00004C0C0000FF0000FFA5
:400E800000F30100540C0000580C00005C0C0000640C0000680C000070B58AB09621002002F074FD02F04AFD002814D102F036FDC0235B00644AD358DB0705D41100634A9A
:400EC0008B585B005B088B505F49604A8B588020000603438B50012002F0ACFF5C4A516C5C4B0B40E82189010B435364536C1B0AFF2213403A2B07D1554A516C564B0B40F2
:400F0000E82189010B435364002300225349544803F016F8002300225249534803F010F8002300225149524803F00AF80023002250498A20800003F003F8002300224E49E5
:400F40004E4802F0FDFF002300224D498820800002F0F6FF002300224A494B4802F0F0FF0023002249494A4802F0EAFFFFF7A6FD484A494B1A6000240CE06200121953004A
:400F8000464AD318198B9A8AD88A00041043FFF78BFD01340B2CF0D900240AE06200121993003E4AD3185A6E196ED86DFFF782FD0134112CF2D93A4C2100343120003C3003
:400FC000FFF758FD0F22374B1A60374A374B1A60374A384B1A60384A384B1A60384A394B1A60394A394B1A60394A1368812149000B43136001AD2A002300443343CB43C2CF
:4010000043CB43C243CB43C22900324800F0A2F92A002300683313CB13C213CB13C213CB13C229002C4800F095F92A002B4B0C3313CB13C213CB13C213CB13C229002848AF
:4010400000F088F90AB070BD000026400C05000000002740FF00FFFFFFC5FFDF0E0E0040070E00000D020040290200000D0E0040080E000001020040070C0040150C000088
:401080000C0200400C0E0040030E00000B020040270200000300FA05F0012140D88F0010D89000100000674007010100000267401FFF0F00E00138401EEE0E00200238402B
:4010C00013330300600238401DDD0D00A0023840007934408002324000033240589100100005324010B50249024801F0FDFD10BD040B00080000674010B5144B1B78002B34
:4011000011D1134C134A1449200001F069F9134A1349200001F092FA1249134802F068FB01220A4B1A70104B00229A5E002A05DB1F231A401E3B93400C4A1360044A136805
:40114000802109060B43136010BDC046B808000800006740040B0008B89A001084D71700A0860100E5100010C88F001000E100E010B50249024802F009F910BD500B0008FF
:401180000000664010B5114B1B78002B0BD1104A1049114801F0ACFE1049114802F028FB01220A4B1A700E4B00229A5E002A05DB1F231A401E3B93400A4A1360064A136887
:4011C000802109060B43136010BDC046B9080008500B0008CC9A00100000664071110010D08F001000E100E0214B984230D00ED8402831D004D800281FD010282AD031E0D6
:4012000080282BD080235B00984229D02AE0194B984229D007D8A0231B0698420DD0164B984212D01EE0154B98420AD0144B984209D0144B984215D101E0002016E01248CE
:4012400014E0124812E0124810E0A020C0030DE007480BE00F4809E00F4807E00F4805E0034803E00E4801E0A420C0037047C04606005200010000F0090000A0040000F0F1
:40128000050000F0030000F0010052000200520003005200010050000200500005005200FF00520070B5124B1A683123D35C002B04D1C421FF310F4802F022FB0C4B1D6821
:4012C0002C00B423EB582A6A944663441B68002B0BDB094B1868FFF787FF6B6801229A6063689B68002BFBD100E0044870BDC046880B00080C9B0010BC080008020050002B
:4013000010B50D4B1861002805D002230370FD33437000234380094B1B6850229A5C002A08D051229B5C002B04D04F3A0449002000F0F8FA10BDC046BC080008880B0008FD
:401340000102000810B502481430FFF7D9FF10BDBC08000870B505000C0000285DD000295DD0FF230A689A4303D099212D4802F0C7FAFF2322699A4303D09A21294802F026
:40138000BFFAA3685B0D03D09B21264802F0B8FA63685B0A03D09C21224802F0B1FAE3695B0F03D09D211F4802F0AAFA236A5B0F03D09E211B4802F0A3FA1B4A11688B6908
:4013C000EB1ADB0949691B01CB18216829607D211068415C6918E06808607E211068415C6918206908607F211068415C6918606908607C211068415C6918A0680860616864
:40140000A961116880228A5CAD18A2692A60E2691A60226A5A60002002E0044800E0034870BDC0464C9B0010880B000801005A0070B504000D000A4B1A68B423D3581B1861
:401440001B68002B0ADA0B0C03D00649064802F057FA2D042D0C6560002000E0034870BD880B0008D5020000CC9B001001008A0070B505000C000368002B01DA002300E04B
:40148000084B002B0BD1EA60230C03D00649074802F036FA2404240CAC60002000E0014870BDC04601008A00BB020000CC9B001070B505000C1E03D19921084802F020FAE9
:4014C000074B1A68B423D3585B191B68002B03DAEB682360002000E0024870BD0C9C0010880B000801008A0070B504000D00234B1A683123D35C834236D9002936D00B68CD
:40150000DB0635D13123D35C984204D3C421FF311B4802F0F5F9194B1B681A6AB0215B5A5C431419174E34602B68DA080021686804F0A5FE00212000FFF77AFF3468002D0C
:4015400003D111490E4802F0DBF92A0000212000FFF78EFF00280DD10A4B18680021FFF767FF002808D108E0084806E0074804E0064802E0064800E0054870BD880B000816
:40158000CC9B0010D40800089303000003018A0001018A0010B50400002A17D1002915D1124B1A683123D35C984204D3C421FF310F4802F0A5F90D4B1B681A6AB0215B5A42
:4015C0005C4314190B4B1C6000200EE0002A09D0002909D0074B59609A60191D2000FFF783FF02E0044800E0034810BD880B0008CC9B0010D408000803018A00F0B583B0E5
:401600000D001C4B1B68DC68236883422DD947097B01C01A012383401E00002903D102F030FA019001E000230193124B18680368002B01DA002300E00F4B002B0ED16368AC
:40164000BF00DF193B68334203D0B3433B60002400E00A4C0021FFF7EBFE00E0084C002D04D1019802F011FA00E0064C200003B0F0BDC046D408000801008A00020188005F
:401680000301880004018A000A4B1B68DA68136883420BD943095901401A0121814052689B009B580B4203D0034802E0034800E003487047D40800080101880004018A002F
:4016C00000018800034B1B68002B01D1014B18607047C046E0080008F0B5474680B404000F0090461E002D4B1B68002B03D1B5212B4802F005F9294B1B682C2060431C1868
:40170000FF22150035402560330A13406360360CA660244B1A683123D35C9D4204D3C421FF31214802F0ECF81E4B1A68B023D35A6B43116A8C466344236166683223D35CFD
:401740009E4204D3E021FF31174802F0D9F8154B1B681D6A80367601AD196561A668330C04D0FF214900104802F0CAF8330C03D00E490D4802F0C4F83604330C1E43AE6052
:401780004346E36127620023A361069B002B02D000229B5EA38104BC9046F0BDE00800084C9C0010880B0008CC9B0010FF010000F0B58FB0041E03D15221294802F0A0F84A
:4017C0006368032B03D95421254802F099F8E36A002B03D15821224802F092F8236B002B03D159211E4802F08BF807AA1300210061C961C321C921C302AD290023001433DF
:40180000C1CBC1C141CB41C10821535E0CAE3380144B1B6836215B5E07998C466344B370089B0D930B9B0A980096A26AE16AFFF753FF2B69E868002200920021FFF74CFF5D
:40184000216B300001F0D4FF0023F25E002A05DB1F231A401E3B9340034A13600FB0F0BD4C9C0010880B000800E100E0F8B505000F0016001C00002A03D1FD21224802F0B8
:401880003FF8224B1B68002B03D1FE211E4802F037F81E4B1B682C2128004843181879435918012213004D68AB401B044568AA4015000269002A20D08F69002F1FD112685C
:4018C000002A01DA002200E0114A002A19D132681204120C134333600369DE6001238B614C6204692B0C03D00A490B4802F008F82A04120CA260002004E0084802E0084870
:4019000000E00748F8BDC0464C9C0010E008000801008A00BB020000CC9B001004028A0007028A0070B504000D0016000F4B1B68002B04D1AF2149000D4801F0E1FF0B4B35
:401940001B682C2060431C18236A002B04D1B1214900074801F0D4FFE369B34204D9236AB6009D51002000E0024870BDE00800084C9C00100A028A0070B582B00400002344
:401980000193002804D1D221FF312D4801F0B8FF2369002B04D1E9214900294801F0B0FF6369002B04D1D421FF31254801F0A8FF236A002B04D1EA214900214801F0A0FF96
:4019C0006269D5682B0C24D01B041360136820691C4B1A68B423D358C3181B68002B18DA01A9FFF765FD00280ED1019803681E0CFF221340E269934207D29B00226AD358C2
:401A0000002B02D0984700E0002631002069FFF70FFD2D042D0C0FD063691D601B68636A002B03D098470023636203E0A36A002B00D098470023A36163691B6802B070BD42
:401A40004C9C0010880B000810B50400084B1B68002B04D1B221FF31064801F051FF044B1B682C2060431818FFF786FF10BDC046E00800084C9C001010B50400094B1B68DB
:401A80009B6CC340DB0703D4BE21074801F038FF044B1B681B691034A402E3580F20184010BDC046880B00088C9C001030B5C0239B00C3580F242340072B07D900230FE02D
:401AC000D024A4000459CC54013300E000239342F6D307E05C00D025AD0045590D5301339342F7D330BDC04610B51400C2239B00C358DB05DB0D9A4200D31C002200FFF734
:401B0000D5FF200010BDC04603681B0501D5802200E0402282239B00C358DB05DB0D934204D090239B00C150012000E00020704730B580239B00C3580F242340072B07D9B0
:401B400000230FE0CD5C9024A4000551013300E000239342F6D307E05C00655A9024A400055101339342F7D330BDC04610B5140003681B0501D5802200E0402282239B00D3
:401B8000C358DB05DB0DD31AA34200D81C002200FFF7CEFF200010BD30B503681B0501D5802200E0402200240AE082239B00C358DB05DB0D9A42F8D090239B00C550013413
:401BC0000D5D002DF1D130BD03E090239B00C150013A002AF9D1704710B5140003681B0501D5802200E0402282239B00C358DB05DB0DD31AA34200D81C002200FFF7E4FF75
:401C0000200010BD10B54A68394B9A4230D1C2239B00C358DB0516D00A6A402313430B620B78002B0CD0C1239B00C258802464022243C250C4582F4A2240C250C35802E03A
:401C4000D0239B00C3580A6A202313430B620B6A102293430B62026E274B134003660022264BC250083B0132C250C3581F3221E08224A4000359DB05DA0D0359DB0B01244B
:401C800023409B180A6BD21A4A630A6A120705D4CA6AD218CA628A6AD31A8B620A6A042313430B620B6A012293430B620022144BC2501032134BC4580223FF331C420ED067
:401CC00003685B005B08036000238366C36603688024240623430360036840231A4380235B054B604B6C002B01D01000984710BD01100000FFFFFEFFFF5FFFFFC80F00009A
:401D0000880F00004C0F000010B51C4BC3589A071DD5F02212010224845084588258520702D58020800301E0802040038A6802438A604868B8225203904208D00A7B002A92
:401D400002D0C022520301E0B02252034A60DA0504D58A688020000402438A60DA0704D58A688020C00302438A601222FF32134202D0C0235B034B6010BDC0460C0F000087
:401D800000230B4A83500B4A8350836E002B04D01822FF32084BC25008E01422FF32064BC25018238366B8235B034B607047C046C80F0000880F0000080F000070B53F4B45
:401DC000C458026E3E4B1340036600233D4A83503D4A83503D4A8350F0231B011822FF32C250C3588A683A4B13408B604B7B002B02D08B69CB610CE08D698226B600835966
:401E0000DB05DA0D8359DB0B012633409B18EB1ACB610223FF331C421ED0036E9B0F032B06D10233FF331C40631E9C41E4B200E00124002C0CD003685B005B080360002365
:401E40008366C36603688022120613430360036880235B054B601BE00B78002B10D0C1239B00C258802464022243C250C458184A2240C250C358FC231B010122C250C3581E
:401E80000B7B002B01D0134B01E080235B054B604A6C002A10D04B7B002B02D08024E40201E08024A4028868F8235B04184001D0802000032043904770BDC0460C0F0000BD
:401EC000FFFEFFFFC80F0000880F0000080F0000FFFFFEFF0000101070B505000C002423CB5C002B10D1CB6A002B0DD14B6C002B01D008209847E36A5A425341DBB224224F
:401F0000A354233A314BEA502423E35C002B16D06378002B06D02B681B0501D5802202E0402200E00122FF212800FFF755FE236BC0182063226A08231343236244E0E26A36
:401F4000012A13D96378002B01D0013A00E00122A16A2800FFF70AFE236BC3182363E36A1B1AE362A36A9C466044A06282239B00EB58DB05DB0D802B26D0E36A012B23D160
:401F800001F07FFDA36A1A7890239B00EA50F8231B014026EE50EB5801F077FD236B013323630023E362A36A0133A362074BEE506378002B08D0226A022313432362636C4B
:401FC000002B01D00420984770BDC046880F000070B505000C004A68A8235B039A4203D1C0235B034B6059E04A68A0235B039A4254D14A69012A13D94B78002B01D0013A9A
:4020000000E0012221692800FFF7B0FDA369C318A36163691B1A636123699C466044206182239B00EB58DB05DB0D802B15D06369012B12D101F025FD23691A7890239B00D0
:40204000EA50F8231B014022EA50EB5801F01DFDA3690133A361002363616369002B1DD1237B002B06D040220D4BEA50A8235B03636005E000220A4BEA50B0235B036360EC
:402080006378002B0AD0A368802292021343A360636C002B02D080204002984770BDC046880F000070B504000D008A6C002A2ED00368DB0305D5504BC3585B0603D50220C7
:4020C00002E0002000E00020236E1B0506D44A4BE35880210B4000D001231843002818D09047FC231B010122E250E358002809D1F4231B010F32E250E358D222FF323F4B04
:40210000E25007E0C222FF323C4BE25002E0002000E0002081239B00E258802149020A43E250E158364A0A40E250E358002801D1012300E00223E36600285CD1636E10269A
:402140001E406B6C002B05D0002E01D0013000E002209847002E0DD02A4B6B602B6A012213432B626B6B2B6300212423E954264BE25040E0254B6B602A6A102313432B6282
:402180000122234BE2502B78002B1AD0EB6B002B19D0236E8022920113432366ED6B802D05D92B00803B802B0FD8813D0EE0013D236E80221202134323660022144BE25077
:4021C00004E0002502E0002500E03F2523681B0501D5802300E040239D4204D3A02189000C4801F08DFBC1229200A358FF218B430D401D43A55070BD4C0F0000480F000078
:40220000FFFFFEFF02100000880F000001100000C80F0000CC9C001070B505000C004B6888225203934204D09022520393421DD06BE0D0239B00C3580A6913708B6901332E
:402240008B614B69013B4B61002B05D00B6901330B610423836658E00B7B002B02D0C0235B0301E0B0235B0363604EE04A690969FFF73AFCA369C318A36163691B1A6361B2
:402280002269944660442061012B24D82A6E1F4B13402B666369012B16D12B681B0501D5802300E04023002B04D1A0218900184801F026FBC1229200AB58FF218B43AB501B
:4022C00088235B03636020E00022124BEA50B0235B03636019E0402B01D89C1E00E03F242B681B0501D5802300E040239C4204D3A0218900064801F003FBC12189006A5853
:40230000FF239A43234013436B5070BDFFFEFFFFCC9C0010C80F000070B505000C00CB6B002B53D00B78002B41D0C1239B00C358FF221A400132896BFFF7D6FB236CC318CD
:402340002364E36B1B1AE363A26B94466044A063802B06D91A00803A802A11D8813B1C000FE02B6E8022120213432B66E36B002B01D05C1E00E000240022174BEA5000E02B
:402380003F242B681B0501D5802300E040239C4204D3A0218900114801F0B2FAC12189006A58FF239A43234013436B5013E00123C3660B6CD02292008258896BCA54236C00
:4023C00001332364E36B013BE36304E00223C3660022014BC25070BDC80F0000CC9C0010F8B505000C0016000B78012B04D00A7A002A03D1002702E0002700E00127002DE6
:4024000000D1B3E0002C00D1B2E0002E00D1B1E0013BDBB2022B03D94F21574801F070FA6378002B00D06379002B03D05021524801F066FA0323E356002B03DA51214E4862
:4024400001F05EFA2379DB0703D552214A4801F057FA2369102B03D95321474801F050FAE368102B03D95421434801F049FA6379002B02D08021490200E00021E279002AB4
:4024800002D080235B0000E000230B438022120113432B60A379002B01D1110000E0002123695A1E0F2313401943E3685A1E1201FF231A400B0013432278920713432B6688
:4024C000002F01D02D4A01E00822FF32C0239B00EA50002F01D02A4B00E02A4B2B676378002B01D07F2200E00022C1239B00EA50E3785B00FF221340227912041343C422CB
:402500009200AB50204A80239B00EA50A378002B01D0402200E0012281239B00EA5000231A4AAB501A4AAB501A4AAB501A4AAB501A4AAB502378022B02D0D222FF3200E09A
:402540000022174BEA5063783370A378737080235B0573600023B360B36133623364F3633363F3627364B364002004E00D4802E00C4800E00B48F8BD109D00100703000068
:4025800003002A0013102A0007010100C80E0000880E0000C80F0000880F0000080F0000480F00000120AA0070B505000C1E03D11749184801F0A4F92B6E9B0F012B11D1BE
:4025C000154A164BE31893421AD9154A154BE318934217D9144B9C466444144B9C4213D8134814E0002C11D02A6E12090F210A402B6E194051180231200001F081FF06E03A
:402600000C4804E00C4802E0002000E0002070BDC3020000109D0010405B730020AD88FF50A9AB005059E8FF004D0EFF40555C0440420F00801A0600A0860100F0B55F46D6
:4026400056464D464446F0B483B0060089460192002A03D17549764801F052F94B465C1E744B9C4203D97449714801F049F9336E9B0F012B0DD101993000FFF795FF0700CF
:40268000C0229200B1586D4B0B40B3506C4B3367C4E0684B9C4226D86A4B99450AD86A4A019B6A498C466344934220D900239B46013334E0664B99450AD8664A019B66499C
:4026C0008C466344934219D900239B46013326E0624A019B62498C466344934217D900239B4601331BE000239B46013317E000239B465C4B9A461D00002310E000239B460A
:40270000E1239B009A46C825ED00002307E001239B467C33FF339A469B25AD000023002B7BD10199504801F0EBFE07000100280001F0E6FE040003007B439D4200D90134A6
:40274000102C00D9102400230F22A2425B41DBB298463900504601F0D3FE05004743BA4500D90135102D00D910256119019801F0C7FE070016E04346002B05D00F2C0CD8EA
:4027800001340023984608E00F2D06D8013500230F22A2425B41DBB298466119019801F0AFFE07004F4502D963191F2BE3D95B46002B09D0C0229200B358802189000B4327
:4027C000B3502A4B336707E0C0229200B1581B4B0B40B3501A4B3367E31F092B03D92449244801F08DF8326EF0239A43013C2301FF241C40144334666B1F0B2B04D9B4217C
:40280000C9001C4801F07CF8326E0F218A436B1E19400D001543356600E00027380003B03CBC90469946A246AB46F0BD12020000109D00103F420F0013020000FFFDFFFFF2
:4028400013102A00A0860100502D19005059E8FF801A0600A043210020AD88FFC02BAF00807E25FF8813000000CA9A3B03002A0083050000509D00108868704770B504004E
:402880000D001600002903D15549564801F038F86B68002B02D0AB68002B03D15249514801F02EF80023EB56002B03DA4F494D4801F026F800224E4BE2507368DB0000D44F
:4028C00088E02B785B00FF32134001210B431A0080204002B0606B683361AB6873610023B361F3612B7B33737173F0231B011821FF31E150E35881239B00E1580143E15078
:40290000E0583C490140E150E358716880235B05994205D190239B00E2500223A36609E0636E9B0601D5092300E00123A36690239B00E2503378002B29D0337B002B26D169
:402940007369012B23D9236E80225200134323667569802D01D8023D00E03F2523681B0501D5802300E040239D4204D3A0218900214800F0C5FFC1229200A358FF218B4326
:402980000D401D43A55090235B03736015E023681B0501D5802300E04023002B04D1A0218900154800F0ACFFC1229200A358FF218B43A35088235B03736001F062F8012258
:4029C0000E4BE2501422FF320D4BE25001F05DF8002000E00B48D222FF32054BE25070BDD3040000109D0010D4040000D5040000480F0000FFFFFEFFCC9C0010C80F000008
:402A0000080F00000220AA00F8B504000D001600002903D14B494C4800F072FFAB68002B07D06B68002B04D1B721C900464800F067FF0023EB56002B03DA4449424800F079
:402A40005FFF0022424BE2507368DB0074D52F787F00FF231F4080214902B1606B683361AB6873610023B361F3612A7B32737373F0231B011822FF32E250E35881239B0025
:402A8000E2580A43E250E158324A0A40E250E358726880235B059A420AD190239B00E750F8231B014022E250E3580223A36619E0636E9B0601D5092300E00123A36673694E
:402AC000002B0CD100F0DDFF90239B00E750F8231B014022E250E35800F0D7FF02E090239B00E750A0235B0373607378002B01D0402500E0012523681B0501D5802300E000
:402B000040239D4204D3BA218900134800F0F8FE81229200A358FF218B432B43A35000F0B0FF01220D4BE2501422FF320C4BE25000F0ABFF002000E00A48D222FF32044BBC
:402B4000E250F8BDB7050000109D0010B9050000480F0000FFFFFEFFCC9C0010880F0000080F00000220AA0070B504000E00354BC358DB0707D580235B014B60813BFF3BC3
:402B80000122C250C358304BE5580223FF331D420ED0336AEA0502D58022520000E08022134333620022294BE25010231D430EE0EB060CD5C2239B00E358DB0507D0F36BCA
:402BC000002B04D00123224AA350204AA350214BE358DB0708D531002000FFF79DFBFC231B010122E250E358EB060AD531002000FFF708F8F4231B011022E250E358124BA0
:402C0000E558C0232B420DD031002000FFF74AFAE8231B010122E250E358F4231B01BF32E250E3580C4BE35841221A4208D031002000FFF751F9F8231B010122E250E358D6
:402C400070BDC0468C0E00004C0F0000C80F0000C40F0000CC0F00008C0F000070B506000D00E0231B01C458A3070CD5836E002B06D0002383668B688022520413438B60E4
:402C8000C0235B036B60E30705D529003000FFF73BF804239C43230708D529003000FFF7BBFAFC231B010122F250F358630708D529003000FFF78CF9F8231B010122F2500F
:402CC000F3586A68C0235B039A4203D129003000FFF774F86A68B0235B039A4203D129003000FFF74DF870BD10B54B68DB0202D5FFF7B4FF01E0FFF737FF10BDF8B54F46A6
:402D00004646C0B405000C0003681B0501D5802700E0402780239B00EB580F261E40A26A012A1BD9636A9946E262531E98464B46002B02D04346002B03D12649264800F0D2
:402D4000DFFD424649462800FEF710FFA36A1B1AA362072E00D940004844606282239B00EB58DB05DB0D9F422FD0A36A012B2CD10023A362072E02D8636A1E7801E0636AA8
:402D80001E8800F07EFE90239B00EE50F8231B018027BF00EF50EB5800F077FE0F4BEB580F4E1E403E430F4A134203D00E490F4800F0A6FD094BEE5022680223134323603C
:402DC000236B002B01D0012098470CBC90469946F8BDC04673050000909D0010880F0000FEFDFFFF8CF8FFFF2A040000CC9C0010F0B5474680B405000C0003681B0501D5CC
:402E0000802600E040267608A769E3699846002F01D0002B04D19921C900324800F070FD424639002800FEF75FFE236A1B182362E3691B1AE3612ED1A368002B1ED0E368E1
:402E40009E4201D8013E00E05E1E2B681B0501D5802300E040239E4204D3A0218900224800F04EFDC1229200AB58FF218B430E401E43AE5001221D4BEA5002E000221B4BA7
:402E8000EA506368012293436360236B002B25D00420984722E0A169C0229200AA580F273A40072A00D940000818A0619E4215D95C1E2B681B0501D5802300E040239C426E
:402EC00004D3A0218900084800F01AFDC12189006A58FF239A43234013436B5004BC9046F0BDC046909D0010CC9C0010C80F0000F8B505000C001600002800D1BDE1002951
:402F000000D1BCE10B78022B03D93F21C14800F0F7FC637B023BDBB2062B03D94021BD4800F0EEFCA37B002B07D0022B05D0032B03D04121B74800F0E3FC2123E35C012B54
:402F400003D94221B34800F0DBFC2823E35C012B03D94321AF4800F0D3FC2378012B06D86268083A082393429B415B4208E0A37F002B05D063685A1E062393429B415B42B6
:402F8000002B03D04521A34800F0BAFCA368053B042B03D946219F4800F0B2FC6369FF2B03D947219B4800F0ABFCA369FF2B03D94821984800F0A4FCA37C002B0FD0237877
:402FC000002B07D1A368092B06D1A37B002B05D0012304E0012302E0012300E00023002B03D04A218B4800F08BFC8B4B626B1A4203D04C21874800F083FC884BE26B1A42B9
:4030000003D04D21834800F07BFC2378022B02D1A37F002B02D063685A1E00E00022237F002B02D08021490200E00021A368082B02D880231B0100E0002319430F231340D7
:403040000B438022920413432B60226B2B681B0501D5802300E040239A4203D362216D4800F04EFCA26B2B681B0501D5802300E040239A4203D36321664800F041FC626A70
:403080002B681B0501D5802300E040239A4203D36421604800F034FC23781B06C022920413402B64637F002B01D0402200E00022A37C002B02D08023DB0000E000231A4350
:4030C000237C002B02D08021490000E000210A43637C002B02D08021890000E000210A43E36A013B1B04F020000303401343627B013A07210A4013431900A27B12013023D8
:403100001A400B001343AB64237B002B02D08022520000E00022E37B002B04D12378022B03D1013B02E0012300E00023002B02D080239B0000E000231343A268013A0F27E6
:403140003A401343C02292009446AB50FF2260691040A3691A04FF2109040A400243C4239B00EA50E26A6346EB583B4003339A4201D3102A03D97A21264800F0C1FBE37F94
:40318000002B04D02378012B03D0002302E0002300E00123002B02D08020400000E00020627B013A0723134001001943A27B120130231A400B0013436B64237B002B02D0D3
:4031C0008021490000E00021A3685A1E0F2313400B432278012A02D18022520200E00022134380229200AB50FF23226B1340C1229200AB502023E35C002B02D08022920450
:4032000000E000222123E35C012B09D180235B0407E0C046D09D001092F4FFFF8CF8FFFF002313432822A25C012A02D18022520200E000221343FF21626A0A4013432B6568
:40324000A36B0B4081229200AB500F4B626B13400E4AAB50E26B0E4B13400E4AAB50002E0FD0002373603360B360F3603362F3623363094B7363002004E0084802E0074881
:4032800000E00020F8BDC0466D0B0000C80F000073070000880F0000EFCDAB000160AA000B694A69934202D34869181A03E0CA694869101A18187047F0B5474680B4070088
:4032C0000D0003681B0501D5802300E040235B089846C2239B00FE58F605F60D2C6929E00134EB689C4200D100246B699C4211D12B6B002B01D0082098476B699C4209D1B3
:403300000022204BFA50002C01D0013C14E0EB685C1E11E0D0239B00F958403BFB580F221340072B02D8AB68195502E06300AA68D152013E002ED3D12C61EC68290038003F
:40334000FFF7AEFF201A804519D9002801D0441E00E000243B681B0501D5802300E040239C4204D3A0218900074800F0C9FAC1229200BB58FF20834320401843B85004BCEA
:403380009046F0BDC80F0000CC9C001070B504000D00E0231B01C3581B0736D5364BC258C8239B0013400BD04A681A434A60FC221201835083580B6B002B01D01020984736
:4033C0002D4BE3581B0508D56B688022120113436B60FC231B01E250E358274BE358DB0713D5EB69002B04D029002000FFF700FD06E0AB68002B03D029002000FFF75CFF35
:40340000FC231B010122E250E358E0231B01E3585B072FD5194BE258A023DB0013400BD02A681A432A60F8221201A350A3582B6B002B01D020209847104BE358DB0708D5FD
:4034400029002000FFF75AFCF8231B010122E250E3580A4BE3589B050CD50022084BE2502B6801218B432B60EA622B6B002B01D00220984770BDC046CC0F00008C0F0000A2
:40348000880F0000134B1A683C23D35C83421DD9042904D94B1EFF3B9BB2132B18D8FF290CD91F2319400C4A0300C0339B009950D03080000423835000200AE007231940A5
:4034C000D0308000044BC150002002E0034800E002487047880B00080000264001004A0070B5041E03D14A494A4800F009FAB023DB00494AD358002B00DA87E0474B22684B
:403500009A4203D94649434800F0FAF923689B039B0BE279002A02D08022520400E000221343B022D2003C498B50A2883D4B9A4204D98C218900374800F0E2F922893A4B41
:403540009A4203D93949334800F0DAF9A388DB04D90C23891B04364A13400B43354A2E498B50A37A0F2B04D98E218900294800F0C7F9E37A0F2B03D92F49264800F0C0F998
:40358000A289284B9A4203D92C49224800F0B8F9A37A0F211940E27A1201FF2313400B43A289120226490A401343A27B1207C02189050A401343B122D20017498B50A379CE
:4035C000042B03D91F49134800F09AF9228A164B9A4204D9912189000E4800F091F90E4819494558194B1D40A3791B02E022D20013402B4343504558154B1D40238A1B040C
:403600000B4A13402B434350002000E0114870BD1F020000109E001000002640FFFF030029020000FF1F0000FF010000310200000000FF0184050000390200003A02000099
:4036400000FF1F00430200008C050000FFF8FFFFFFFF00FE03004A0070B505003149324A8B588020000603438B502C0003E0012000F03AF9013CB223DB002A4AD3585B070D
:4036800001D4002CF3D12749B122D2008858274B03408020800503438B50002D01D0002C0CD02049B022D2008B588020000603438B5003E0012000F017F9013CB223DB00A7
:4036C000184AD358DB0701D4002CF3D1002D01D0002C08D01349B122D2008B58C020800503438B5013E00F4BB121C90058580F4A02408020800502435A5008395A5852009E
:4037000052085A5008495A58520052085A50002D03D0002C03D0002002E0002000E0044870BDC046000026408C050000FFFFFFCF02004A0070B505000C001A4B1B68282235
:403740009A5C012A15D1820807211000884327D19200AD1AED00FF20A8401B6820339A181168AC4023004B40184004004C40146016E03A229B5EDBB2994203D176210A4809
:4037800000F0BEF8074B1B681B68072215408022120615438022920194466444A400E55070BDC046880B0008989E001070B504000D000B4B9A680B4B9A420CD1002904D13C
:4037C0003821FF31084800F09BF81034054BA400E058E55003E01034A400044BE05870BD00ED00E000000008989E001000000010F0B5474680B482B0061E01914AD043680B
:40380000032B03D93221264800F07AF80023F05E002804DBB178FFF78DFF002400E0214C0023F15E7368002912DB88081E4FC0308000C55903221140C900FC3290468A40CC
:4038400095439A01434613408B402B43C35116E089B20F220A40083A92080632920013481018476803221140C900FF252A008A4097439A012B0013408B403B4343600B4B9C
:403880009A680B4B9A4206D10023F05E0199FFF78DFF00E0034C200002B004BC9046F0BD989E00100100560000E100E000ED00E00000000810B5040006E0084B186800F087
:4038C000D7F8074B9C46644480231B029C42F4D8044B1868604300F0CBF810BDDC0000080080FFFFD800000810B5034B1B78584300F0BEF810BDC046D400000801BEFEE745
:4039000070B50D00044C18220100200003F01FFAA5610020FFF7F2FFA0060008054B802212069A649B6C002B01DB002000E002487047C0460000274003004600054B802224
:40394000120198585B68FF221A4202D08023DB021843704700002640FEE7C04610B50A4B0268DA6142681A6282685A62C2689A620269DA6242691A6382695A63C2699A63FF
:40398000FFF7EAFF10BDC046A0060008F0B5474680B4002801D0192300E064238B429B415B42304D2C682268A826A45BA41822680327BA433B401A4322602C682268A45B13
:4039C000A2181668284CA046264016602C682668AA229446A25A96193268BA43134333602A6813686546525BD3181A68444614401C60002805D010291BD921291BD80120B2
:403A000024E0184B1B6855229A5C914215D956229A5C914213D957229A5C914211D958229A5C91420FD959229B5C99420DD804200CE000200AE0022008E0002006E001206D
:403A400004E0022002E0032000E00520054A1268526813680F218B430343136004BC9046F0BDC046880B0008FFFCFFFF000000000230800803D001300238FCD1C046C046D3
:403A80007047EFF3108072B6704780F31088704710B5B0235B059B899BB2002B04D0B0235B059B899BB201E080235B0080225200934215D1184C23681968683A9B58C918BC
:403AC0000B680F208343963A13430B6021680C689C23CB58E318196881430A431A6019E00D4C2368196898229B58C918B02040050A4BC2580A4B13400A681343C022920093
:403B000013430B60226811689C23D358CB18054A82581A6010BDC046880B000848180000FFFCFFFF4418000030B5B0235B059B899BB2002B04D0B0235B059B899BB201E021
:403B400080235B0080225200934215D1184C23681968683A9B58C9180B680F208343953A13430B6021680C689C23CB58E318196881430A431A6019E00D4D2B6819689822B3
:403B80009B58C918B0246405C12040012258094B13400A681343C022920013430B602A6811689C23D358CB1822581A6030BDC046880B0008FFFCFFFFB0235B059B899BB2BD
:403BC000002B04D0B0235B059B899BB201E080235B008022520093420DD1104B1B681A6898215B58D21811680D4B0B40C021C9010B43136011E0094B1B68196898229B5868
:403C0000C918084BB0225205D258074B13400A681343C022920013430B607047880B0008FF8FFFFF18180000FFFCFFFF30B5B0235B059B899BB2002B04D0B0235B059B8975
:403C40009BB201E080235B008022520093420DD1134B1B681A6898215B58D2181168114B0B408021C9010B43136018E00C4D2B68196898229B58C918B02464050A48225870
:403C80000A4B13400A681343C022920013430B602A6811689C23D358CB1822581A6030BD880B0008FF8FFFFF4C180000FFFCFFFF10B5B0235B059B899BB2002B04D0B023E7
:403CC0005B059B899BB201E080235B0080225200934217D10020FDF7CFFEB0235B055B78002B04D0B0235B055B78DBB200E02123222B03D8002803D1013004E0012002E08A
:403D0000002000E0012010BDF8B50700012803D93D493E48FFF7F4FDB0235B055B78002B04D0B0235B055B78DBB200E021239DB2B0235B059B899BB2002B04D0B0235B0508
:403D40009E89B6B201E0802676000020FDF794FE002814D180235B009E4212D1222D12D82B4B1B685C682B4821582B4B19403B068022520413400B432350002404E0274CCA
:403D800002E0264C00E0254C80235B009E4201D1222D03D880235B009E4232D01C4B1A683123D35C002B04D1C421FF311C48FFF7A7FD174B1B681D6A80235B009E4203D107
:403DC000002F05D0174A06E0002F03D0164A02E0164A00E0164A01212800FDF749FB00280FD10B4B1A68B423D3585B191B68002BF7DBEB681B0E1B06A0221206934200D11F
:403E000000242000F8BDC0464C0A0000DC9E0010880B000818F00000FFFFFFFE040042000C9B0010010100300300000C010000300100000CF8B50500012804D98221090124
:403E40002948FFF75DFDFFF733FF002849D0FFF718FE0700002D11D10021244B244AD150E823DB00B0225205D65CF6B20120FFF74BFF041E19D1FFF70BFE16E0B022520563
:403E80001C4BD0581A4B194958501B49565CF6B21A481A581F218A4314390A431A500320FFF722FDFFF7C2FE0024002C15D11049124A8B581F20834306401E438E50002DEE
:403EC00002D1FFF779FE08E00720FFF70DFDFFF72BFE0020FFF718FF04003800FFF7D5FD00E0074C2000F8BDDC9E0010307F00000000264010180000410700001CFF0000F1
:403F000003004200042805D10B4A116804230B4313600FE0094B1A681168A023D358CB180006C022920410401860034A136804218B4313607047C04610E000E0880B0008D9
:403F4000F0B54F464646C0B483B006000D0000921F00012B03D95B212B48FFF7D1FC330B03D05C212848FFF7CBFC284B1A686E23D35A9B08013B264A13432A009A4301D16A
:403F80006B0003D45D212048FFF7BAFC32006A40F0231B011A40141E2FD1FFF772FD01901A4B18686C23C15A83689C4661446E23C35A9A08013A2A40920090466A22825ADA
:403FC00015402D0A5D432A00424455182A68920A9202FF231E40009B002B01D00134FF3426437F0280239B001F403E4316432E600198FFF74AFD002000E0064803B00CBCA9
:4040000090469946F0BDC0461C9F0010880B0008000F00400100CE000749C02252008B589B009B088020C00503438B508B588020000603438B50704700002640014B1860DE
:404040007047C046880B000870B5002800D193E0002A00D192E053681B061D0C93689B048024E40223402B43D4682504C024A4022C40234314692506E024E4042C402343C9
:40408000147F002C01D0012400E0002423430C1DA4012350D368002B06D18B01C3180933FF3300241C600EE0012B06D18B01C3180933FF3314681C6005E08B01C3180933A8
:4040C000FF3301241C601369002B0AD18B01C3181C000D34FF34556925601133FF3394691C608B01C3181533FF3314681C60936C5C1C1BD00F25966A2E40146B2502F024AB
:40410000240125403543946B2604F024240334402543146C2407240C25431C01FF2323402B438C0104192134FF3423600324556A2540D36A1E012D3434402C43536B1D026D
:40414000C0239B002B402343D46BA401FF252C4023431D00536C9C000C231C402B0023438901411808002530FF300360136A3931FF310B60002002E0014800E0004870BD8E
:404180000100B600F0B5002800D1C9E0002A00D1C8E02823D35C002B01D0012400E00024137F002B01D0022300E000231C4313699B048026F6023340234394682404C0260E
:4041C000B6023440234316683406E027FF043C402343546B6500146B25432D05C027BF033D402B43946BA5002B431C00052E03D1D3681B061B0C02E053681B061B0C2343B5
:404200000C1DA40123501368062B0BD18B01C3181C000934FF34012525602933FF333F241C6027E09368002B0BD18B01C3181C000934FF34002525602933FF3331241C60A5
:4042400018E0012B0BD18B01C3181C000934FF34556925602933FF331C241C600AE08B01C3181C000934FF34012525602933FF3312241C608B01C3181C000D34FF34156A80
:4042800025600434556A25600434556925601933FF3394691C60136E5C1C1BD00F25166C2E40946C2502F024240125403543146D2604F024240334402543946D2407240C28
:4042C00025431C01FF2323402B438C0104192134FF3423600324D56B2540536C1E012D3434402C43D36C1D02C0239B002B402343546DA401FF252C4023431D00D36D9C00A1
:404300000C231C402B0023438901411808002530FF300360D36A3931FF310B60002002E0014800E00048F0BD0100B60070B50D001600002907D1002408E02878FCF780FB13
:404340000135013400E00024B442F6DB200070BD70B50D00160000290CD100240DE0FCF77BFBC0B2287001340A2806D00D2804D0013500E00024B442F1DB200070BDC04653
:4043800010B5084B1B78002B07D1074A04210748FFF75AFE0122034B1A701022034B9A6010BDC046E4080008D0A000100000384010B5084B1B78002B07D1074A0221074897
:4043C000FFF7E0FE0122034B1A70044B04229A609A6110BDE50800081CA100100000384010B5084B1B78002B07D1074A07210748FFF7C8FE0122034B1A70044B80229A6065
:404400009A6110BDE608000880A100100000384010B5084B1B78002B07D1074A03210748FFF712FE0122034B1A700822034B9A6010BDC046E7080008E4A100100000384059
:4044400010B5084B1B78002B07D1074A05210748FFF7FAFD0122034B1A702022034B9A6010BDC046E808000830A200100000384010B5084B1B78002B07D1074A06210748BC
:40448000FFF7E2FD0122034B1A704022034B9A6010BDC046E90800087CA200100000384010B5084B1B78002B07D1074A01210748FFF768FE0122034B1A70044B02229A60DC
:4044C0009A6110BDEA080008C8A200100000384010B5084B1B78002B07D1074A00210748FFF750FE0122034B1A70044B01229A609A6110BDEB0800082CA3001000003840D4
:40450000002243088B4274D303098B425FD3030A8B4244D3030B8B4228D3030C8B420DD3FF22090212BA030C8B4202D31212090265D0030B8B4219D300E0090AC30B8B420A
:4045400001D3CB03C01A5241830B8B4201D38B03C01A5241430B8B4201D34B03C01A5241030B8B4201D30B03C01A5241C30A8B4201D3CB02C01A5241830A8B4201D38B02CB
:40458000C01A5241430A8B4201D34B02C01A5241030A8B4201D30B02C01A5241CDD2C3098B4201D3CB01C01A524183098B4201D38B01C01A524143098B4201D34B01C01A40
:4045C000524103098B4201D30B01C01A5241C3088B4201D3CB00C01A524183088B4201D38B00C01A524143088B4201D34B00C01A5241411A00D20146524110467047FFE79C
:4046000001B5002000F006F802BDC0460029F7D076E770477047C0468446101C62468C46191C634600E0C0461FB500F019FF002801D40021C8421FBD10B500F06DFE40427A
:40464000013010BD10B500F00BFF002801DB002010BD012010BDC04610B500F001FF002801DD002010BD012010BDC04610B500F093FE002801DC002010BD012010BDC046D0
:4046800010B500F089FE002801DA002010BD012010BDC046F8B556465F464D464446F0B40F00FD0FAA4609037C002E005F00450F490A7F0D2943C5001803BC46400A570FDA
:4046C000640DDB0F3843D2009A4500D1AAE06646A61B002E00DCFFE06346002B39D10300134300D0D9E06B0709D00F232B40042B05D02B1DAB42AD416D4249191D000B0278
:4047000000D482E0CA4B01349C4200D1FEE00A005646C84BED081A405007640552020543120B640D002112030B0D1B056405120B1A436308C04CF60714401C436400640832
:404740003443280021003CBC90469946A246AB46F8BDB74B9C42C6D080231B041843382E00DDEBE01F2E00DD1EE120239B1B9C4603006746BB40984613004746F3403B43BF
:404780006746BA40571EBA4113430200F240EB1A9D42B6411D008A1A7642911B0B0231D54A02560A002E00D1B4E0300001F040FD0300083B1F2B00DDB5E020222900D21A4F
:4047C000D1409E400A009D4032439C4200DDB1E01C1B631C1F2B00DDD5E0202114002800C91A8C40D8408D400443DA40681E854111002543002476E74146314300D134E2F6
:40480000310045466B0700D06FE756464807ED08C9080543864B9C4235D00A036405120B640D7FE76346E31A9B46002B00DC8BE06746002F3CD07E4FBC4200D153E78027AF
:404840003F0438435B46382B00DCF7E00243501E82410020D2B253194218AB4289411D00494289180B02CDD5714B01349C4200D13DE101206F4A6B080A4028401843D50740
:40488000054351082FE72B000B4300D1CBE180231B030B431A03120B44E7013E002E6DD1AE1AB5429B41091A5B42C91A350075E70700174300D116E701235B429C46E34464
:4048C0005B46002B00D0E0E0AA18AA429B4109185B4259181500C5E7002E75D1661C7605760D012E00DCF3E0AE1AB0464545BF410E1A7F42F61B370200D48FE0551BAA42F6
:40490000B641411A76428E1B9A464BE756460022002507E7280001F08BFC20300300083B1F2B00DC49E72A002838824000259C4200DC4DE73F49E41A1140D4E60243501EB2
:404940008241D3B2002222E7002B00D0F3E0631C9C465B055B0D012B00DC9FE0344B9C4500D1C3E0AA180918AA42804140424118CD075208154349086446B4E62C4B9C4297
:4049800000D0ECE6AFE611001F3CE1400C00202B00D17FE04021CB1A9A4015436A1E95410021254300242DE733000700203BDF403B00202E70D04027BE1BB0400243501EB5
:4049C000824113430022E2E6002C4FD0184CA44500D1ABE08024240476422143382E00DDDFE01F2E00DD43E12027BC1BA1460C004F46BC40A0462C004746F4403C434F46FF
:404A0000BD406F1EBD41F1402C43151BAA429241411A5242891A64469A46BFE641464546314300D0BEE6002600240025F2E6C046FF070000FFFF7FFFFFFF0F801F2B59DCC9
:404A40002027FF1ABC46070063469F405B46B9461700DF40B8464F4643461F4363469A40531E9A415B463A43D840F4E60C002C435CD0F643002E55D1551BAA42A441411A42
:404A80006442091B9A46644688E6964FBC4200D0D8E628E6002280E700208FE70B002B43002C00D0C2E0002B00D101E10300134300D118E6AB18AB42B64109187642711870
:404AC0000A0200D409E1884A1D00114064460AE6002C5BD10E002E4300D08AE00100114300D1C2E0010015009A46FCE56446002100258FE620235B429C46DC44634607006B
:404B0000DF405B46BC46202B00D1ACE040235F46DB1B98400243501E8241634613431A00002098E66F4CA44500D057E70100150064469A46D7E5002C39D10C002C436ED00B
:404B4000DB43002B1AD0674CA44568D0382B00DDA4E01F2B00DDAEE020240F00E41AA740B9462F00DF40B846A3464F46444627435C46A5406C1EA541D9403D43AD18954294
:404B80009B4109185B42591864466BE60C002C4315D1010011437BD0010015009A46514CA1E50D43691E8D410021ECB22DE74D4CA44534D0802424045B422143C6E7040059
:404BC00014434ED0ED084C072C438025C9082D03294208D0C6082E4205D1D208410711430C009A463100620FC900E50011433D4C79E50600164300D175E5AE1AB0464545CD
:404C0000BF410E1A7F42F61B370200D4F4E5551BAA42B641411A7642891B9A4663E50100150064465FE5002200257BE5002B3BD00300134315D0ED084B072B438025C90818
:404C40002D03294207D0C4082C4204D141070B002100D2081343C9005A0F1143DD00214C41E5204C3FE5002054E700260025D1E534000F00203CE7403C00202E2BD040277B
:404C8000BE1BB1400D43691E8D4100212C43BCE6802100260903134C0025BBE50D43691E8D410021EDB269E7010015000D4C1AE50100150017E51C000F00203CE7403C003D
:404CC000202B0CD04027FB1A99400D43691E8D410021254352E70021D4E71D0092E50021F3E7C046FF070000FFFF7FFFF0B556464D4644465F46F0B41D000E034C00CB0FE3
:404D000087B0070092468146360B640D98466AD06D4B9C4235D08022430F12041343F6001E43C3009946694B00279C460023644402932B0368001B0BED0F51469B46400D3E
:404D4000009500D178E0604B98426CD05B46DA004B0F802109040B4313439B465346D9005A4B9C46002360444246201A6A40924601901F430F2F00D9B0E05548BF00C05999
:404D80008746374300D088E0002399460233082700260293CDE74346B34649460093029B009A9246022B00D0BFE1002153460122002689461A40444B002136030C0D2405F8
:404DC000360B2643434C1B0526401E437600D207760816434846310007B03CBC90469946A246AB46F0BD330003434FD0002E00D1BCE1300001F01CFA03000B3B1C2B00DDEC
:404E0000ADE11D220100D31A08393A008F408E40DA40B9461643304B00279C46002360444442029385E753465A4613432CD1002300219B46023397E70B4320D05B46002BED
:404E400000D19EE1584601F0F3F903000B3B1C2B00DD8FE102005946083A91408B461D21CB1A5146D9400B0059460B4351469B469140194B9C4660444042002374E70023E4
:404E800000219B4601336FE703236DE70023994601330427002602934BE703230C27029347E70122D51A382D00DCB0E153461A4000210023002689467EE700238026994665
:404EC00000223603004B77E7FF07000001FCFFFF90A30010FFFF0F80F30300005E4500D972E100D16DE1019B4D46013B01930023340002935B461E020B0E1E430B02039330
:404F0000330C994633041B0C494620000093FFF7F7FA009B370043430600494620009846FFF774FB2C0C09040C43A04509D9E419731EA74200D95CE1A04500D859E1023E5D
:404F4000E4194346E41A49462000FFF7D9FA0300009A80465343494620009B46FFF756FB2A040904120C0A4393450DD94346D219013B974200D93AE1934500D837E1022397
:404F80005B429C46D219E0445B46D21A4346360433439B460399180C0B0C1D00059309045B46090C0C001B041B0C4443049159436B4368431B190D0CEB189C4203D980245C
:404FC0006402A44660441C0C09041B04090C20185D18824200D2DEE000D1D7E0161A029B9C465D1BAC459B415B42F61AB74200D106E149463000FFF783FA009B0400434322
:40500000494630009846FFF701FB2E0C09040E43B04509D9F619631EB74200D9F3E0B04500D8F0E0023CF6194346F31A494618000293FFF765FA009B0600434349460298DC
:405040009846FFF7E3FA2D0409042D0C0D43A84509D9ED19731EAF4200D9D6E0A84500D8D3E0023EED192404210043463143049E059A3000ED1A0B040C0C1B0C58436643C4
:40508000534354439A19030C9B189E4203D980225202944664441A0C00041B04000C14191B18A54250D34DD001231943964A019B94466344002B00DCF3E64A0709D00F2286
:4050C0000A40042A05D00A1D8A42894149428B4411005A46D20108D55A468C4B1A4093468022D2009446019B6344894A934200DD5BE65A46C90850070843560251460122C5
:405100005B058146360B5B0D0A4055E680231B031E4211D05A461A420ED15E461E433603360B2A0089467B4B46E6032B00D1E1E0012BBBD11A40BBE61E433603360B4246FD
:40514000744B39E6002BB1D07D194A1EAF4252D91100A542A8D1039A9A42A5D1A6E703003E00283B9E400023994654E601F060F8203041E603005246283B9A40002193464E
:4051800077E6504601F054F820305EE6029B0026AB4200D323E7039E0299B44661448846B045B6415B467642F619B218013B0291974213D290424FD800D18EE0161A9B4601
:4051C0000DE7894500D28EE674084B46F60735005B081D434B46DB0702938BE69742EDD10399029CA142E5D93E1A9B46F7E69846CAE61E00A5E6AC423ED874D0110053E7DA
:405200000121494252E71C000EE71E002BE71F2D3CDC20230A0058465B1B9840EA4099400243481E81415E461143EE404B0709D00F230B40042B05D00B00191D99429B4170
:405240005B42F61833023CD55346012200211A40002601238946AFE502235B429C46039CE344A446029B63449846A045B6417642F6190293B218B1E603988A1E4100814203
:40528000B6417642F619AD19039161E71F225242D31A5A46DA401300202D29D040225846551BA8400143481E814107200B4318400026002809D00F2200261A401900042A09
:4052C000BBD10B0070077602360BDB0803439946012253461A4000236EE502998D42BBD89B4600267BE603989842C5D3110032E70020D7E780265B4636031E433603360B7E
:40530000009A8946034B57E5FF030000FFFFFFFEFE070000FF070000F0B55F4656464D464446F0B41F035C00DB0F9A46194B0E034D00C90F8046360B6D0D8B4691463F0B76
:40534000640D9D4219D0134B9C421BD00123A54206D018003CBC90469946A246AB46F0BDBE42F6D1C845F4D1D34510D0002DF0D1304303005A1E9341EBE7310001230143F5
:40538000E7D1E0E73A430123002AE2D1DEE70023DFE7C046FF070000F0B55F46444656464D46F0B41F033C0B2C4F0E034D00A3465C008446360B6D0DC90F9046640DDB0F7A
:4053C000BD422BD0254FBC422ED0002D0ED130430700814678427841002C17D15F463A4314D14B460020002B0AD006E0002C02D15846024301D099421AD00123484218434B
:405400003CBC90469946A246AB46F0BD0028F2D058425841012240421043F1E737000743D0D002204042EBE75F461743CDD0F8E7A542E2DC05DB5E45DFD808D000205E45C0
:40544000DED248424841012340421843D8E7C445D3D80020C445F4D3D2E7C046FF070000F0B55F464D4644465646F0B41C03240BA4462F4C0F034D005E00C90F80463F0B41
:405480006D0D8B469146760DDB0FA54220D0284CA64222D0002D12D1384344424441002E20D0002C0DD05C42634101245B421C4320003CBC90469946A246AB46F0BD002E97
:4054C00017D05B4519D05B465C4201231C43EFE7390002240143EBD1D9E7614602241143E6D1D7E761460A43DBD100240028DFD0E9E761460A43E4D1E5E7B54203DD012215
:405500005C421443D4E7B542CDDB6745DBD809D000246745CCD259464C426141012449420C43C5E7C845CED80024C845F3D3BFE7FF070000F0B55F4656464D464446F0B4FF
:405540000D0399464E002B0B87B00700924680469B46760DCC0F002E69D06D4B9E4235D05B468022DD001204430F13432B439B46C3009846674B00279C46002366440193AF
:405580004A4615035000D20F53462D0B400D914600D176E05E4A90426CD080225B0F120413435C4AED0094461D4353460022DB00604449463618701C6140029017430F2F8D
:4055C00000D9AFE05448BF00C759BF465B461F4300D088E000239B469846023308270193CEE74946022A6AD0032A00D109E2012A00D0BBE111400022002300259046CCB275
:4056000000212D030A0D12052D0B1543434A1B0515401D436D00E4076D0825434046290007B03CBC90469946A246AB46F0BD034352D05B46002B00D18AE1584600F0F8FD38
:4056400003000B3B1C2B00DD7BE11D22D31A3A0001005D46DA4008398D4013008F402B439B46B8462E4B00279C46002360444642019385E752462A432CD1002500230222C1
:4056800097E752462A4321D0002D00D154E1280000F0CEFD03000B3B1C2B00DD46E11D21CB1A51460200D9405346083A954093400D431B4A944660444042002279E7012418
:4056C00000220C40124B0025904699E70025002301226EE703226CE700239B4698460133042701934CE703230C27019348E700238025984600242D03054B81E75D4643462A
:40570000019A6FE75D4643462100019A6AE7C046FF07000001FCFFFFD0A30010FFFF0F80F30300004246120C91461A0C9446424617044A461B041B0C5A43604690464A4693
:4057400042431000039262461C003F0C7A437C4342440192220C9246019A5244904506D98246802040028046C24450460390100C049048462404240C1204121905922A0C2D
:405780002D042D0C68432C00824648467C4350438146200C8046574357444744BA4503D9802040028046C144380C3F04B84648442404240C01900498A044404404905846CF
:4057C000000C814658460404200C8246070048465F434C464343604660436446834650464443380C8446E4186444A34203D980235B029C46E34448463F04230C3F0C240425
:40580000E419574668436F4384464D46504655434243380C814662444A445B44944503D9802040028446654403983F04834604983F0C8446E344C3458041404282461004D3
:4058400084460198674484466744A344BC46A345A4419946D44464428742BF41D4458041E144A04699459B417F424042C8440743120CBA18A045A4415F423B0064422343AF
:40588000D71843467D19DB0D6D021D435B465A02059B1A43531E9A415B46DB0D1A4343465B021343EA0107D501225C0813402343EA07029E13436D08574AB218002A4BDD9B
:4058C000580709D00F201840042805D0181D98429B415B42ED180300E80104D54F4A15408022D200B2184E48824200DDE7E60124DB08680718436D02530580462D0B5B0D67
:405900000C407DE6802259461203114208D0154206D115432D0398462D0B4C46414B6FE65D4615432D032D0B3E4B69E603005546283B9D400023BCE6504600F079FC2030CF
:40594000A8E60300283B9F400023BB46984689E600F06EFC203073E60124A61A382E07DD00220C4000230025904649E6029EA3E71F2E20DC20222C001800921BF04094404C
:4059800093400443581E83411C43F540630709D00F232340042B05D023001C1D9C4292415242AD182B021FD5012400220C4001230025904624E61F202C004042821AD44043
:4059C000202E1CD04022961BB5402B43581E83410720234318400025002809D00F2200251A401C00042AD8D1230068076D022D0B0124DB08034398460C40002300E6002530
:405A0000E3E780220124120315432D0398462D0B0C40044BF4E5C046FF030000FFFFFFFEFE070000FF070000F0B557464E464546E0B40E001100F20F9246C500420F180382
:405A400037037400400A4E0F7F0A3043CF4E17435A00640D520DDB0FC900B24200D1E5E001267340A61AB446534500D1AFE0002E00DC0DE1002A3AD103000B4300D0E4E059
:405A80006B0709D00F232B40042B05D02B1DAB42AD416D427F191D003B0200D488E0BB4B01349C4200D110E13A00B94B51461A4001235007ED08520264050543120B640DED
:405AC0000B400021280012030D0D120B64052D0515436208AF4CDB072C401443640064081C4321001CBC90469946A246F0BDA74B9C42C5D080231B0418436346382B00DDEC
:405B0000FDE01F2B00DD30E1624620239B1A02009A40664690460A009940F24046464B1E99413243114363460200DA40691A8D429B410D00BA1A5B42D71A3B0235D57A0280
:405B4000530A98464346002B00D1C4E0404600F06FFB0300083B1F2B00DDC5E020222900D21A4746D1409F400A009D403A439C4200DDC0E01C1B631C1F2B00DDE4E020215A
:405B800014002800C91AD8408C408D400443DA40681E854117002543002471E7424663461A4300D14CE2674645466B0700D069E7012351467807ED08FA080B400543734996
:405BC0008C4238D012036405120B640D79E7002E00DC9AE0002A47D06C4A944200D14FE78022120410436246382A00DC08E10143481E81410022C9B24919D219A942BF41F0
:405C00000D007F42BF183A0200D442E15F4A0134944200D14EE101205D4A69083A4028400843D507054357089A4629E706000E4300D017E714E72900114300D1F9E1802116
:405C400009030A431203120B3BE701235B429846C4446346002B72D1691A8D429B413F1A5B42FF1A0D0068E702000A4300D107E7012252429046C4446246002A00D0E6E015
:405C80006918A942B6413F187642F7190D00BAE7002E00D080E0621C5205520D012A00DCF9E06A1A91464D45B6413A1A7642921B9046120200D499E04D1BA9428941C71B6F
:405CC00049427A1A90469A463CE752460123002513400022F5E6280000F0AAFA20300300083B1F2B00DC39E72A002838824000259C4200DC3EE7264FE41A1740C0E60143DF
:405D0000481E81410022C9B210E7002E00D0F1E0621C94465205520D012A00DCA0E01B4A944500D1C5E06918A94292413F185242D2194908D5070D4357086446A0E6134B10
:405D40009C4200D0D9E69BE611001F3CE1400C00202B00D180E04021CB1A9A4015436A1E95410027254300241FE763460200203BDA406346202B71D0402366469B1B98409F
:405D80000143481E814111430022CFE6FF070000FFFF7FFFFFFF0F80002C48D0CA4CA24200D1A2E07442A1468024240427434C46382C00DDDBE01F2C00DD44E14E46202426
:405DC000A41B3E00A640A246B0464C462E00E640B4464646644626435446A5406C1EA54134002C434D46EF400D1B28E04A4643464D461A4300D0A5E6002300240025DEE64B
:405E00001F2A5ADC66462022921B060096409146B04662460E00D640424616434A4691404A1E9141020060463143C240E4E63C002C435AD0F443A146002C52D14D1BA942DA
:405E40008941C71B49427F1A14009A4675E69E4A944200D0C7E613E600227FE700208FE7002C00D0C8E03B002B4300D10FE103000B4300D104E66918A9429B413F185B425B
:405E8000DF193B0200D41AE1904B0D001F406446F6E59A4689E63A002A43002C5CD1002A75D102000A4300D1CAE007000D009A46E6E564460022002581E662460600203A6A
:405EC000D6406246B046202A00D1B7E040226646921B904001434246481E8141114300228AE6794CA24200D061E707000D0014009A46C5E5002C41D13C002C4378D0F443FC
:405F0000A146002C20D0704CA24271D04C46382C00DDB2E01F2C00DDBCE02026341BA2463C005646B4404E46A0462C00F440A446444666463443A4465446A54064466E1EFB
:405F4000B54125434C46E7406D188D4289413F184942CF19140056E6002A2FD102000A4300D184E007000D009A46574C88E53D436F1EBD41ECB200270D1B60E7524CA2425F
:405F800036D0744280263604A1463743BEE702000A4300D174E56A1A90464545B6413A1A7642921B9446120200D4F7E54D1BA9428941C71B49427F1A9A4661E502000A43FC
:405FC0003AD0ED087C072C438025FA082D032A4208D0C7082F4205D145072C003A009A46C9080C43670FD200E5001743364C47E507000D00140043E53A002A4343D002008C
:406000000A4319D0ED087C072C438025FA082D032A4207D0C6082E4204D147073C003200C9080C43D700620FE50017439A46264C26E50022002544E5234C21E5002049E721
:4060400000230025BBE54C463E00203CE6404C46B446202C31D040244E46A61BB7403D436C1EA54164462C4300270D1BE7E6802200231203144C0025A1E53D436F1EBD4148
:406080000027EDB260E707000D000F4CF8E407000D00F5E44E463C00203EF440A0464C46202C0ED040244E46A41BA7403D436F1EBD4144460027254346E70027CFE70D00BE
:4060C00073E50027F2E7C046FF070000FFFF7FFF0B0330B5134D1A0B4B005B0DC90F0024AB4211DD104CA34210DC8024640322430E4CE41A1F2C0CDD0D48C31ADA40130036
:406100005C42002900D11C00200030BD094BCC18FAE7E040084CA44663449A4013000343EEE7C046FE0300001D0400003304000013040000FFFFFF7FEDFBFFFF70B5002853
:4061400030D0C317C4185C40C50F200000F070F8174B184A1B1AD21A1F2A18DD164AD21A9440002224035B05240B5B0D0021100024030A0D1205240B1443104A1B05144024
:406180001C436400ED0764082C43210070BD210091400A000B21081AC4405B052403240B5B0DE3E70025002300240022DEE7C0461E0400003304000013040000FFFF0F8073
:4061C00070B5051E28D000F033F8154B154A1B1AD21A1F2A16DD2C00134A0025D21A94405A052403240B520D002124030B0D240B1B0523430D4C1205234013435B002800E5
:40620000590870BD0B212C00081AC440954024035A05240B520DE7E700220024E4E7C0461E0400003304000013040000FFFF0F801C2101231B04984201D3000C10391B0ADF
:40624000984201D3000A08391B09984201D30009043902A2105C40187047C04604030202010101010000000000000000002310B59A4203D0CC5CC4540133F9E710BD03001E
:406280008218934202D019700133FAE77047F0B58BB014001D1E129906DA802424061B191D0014002D2300E000230B702023149E03229E43462E07D03300453B59424B416D
:4062C0001099013ACB18109309AB049308AB0393139B00920293109B220001932B0000F0CFFD0700472E02D1119BDB072DD5109BFB180793462E14D13B78302B0CD10022E6
:40630000002320002900FEF797F9002804D10123109A9B1A139A1360139B079A1B68D31807930022002320002900FEF785F93022002802D0079B099307E0099B07999942E4
:4063400003D9591C09911A70F7E73800099B159ADB1B13600BB0F0BDF7B52B2307000C000270861C002901DA2D234C427B70092C1CDD6B46DD1D20000A2102F00BFC013D25
:406380003031297020000A2102F01EFB04000928F1DC013D30342C706B4607333000AB4209D92B78013533700136F5E73023E4183370B01C7470C01BFEBD0000F0B595B0B2
:4063C0000C000A920B931A9D099001F0A7FC036818000D9300F0B4FC0023129323680E900C930C99277E2B680722C90501D59B1800E0073393431A0008322A601A685B68B0
:40640000A264E3640122E56CA66C6B005B080F935242C04B30000F9902F0C0FB002819D10122BC4B524230000F99FEF715F9002810D10022002330002900FEF703F900288A
:4064400003D023002D2243331A70B34D472F0ED8B24D0CE032002B003000290002F09EFB002800D19AE1AE4D472F00D8AD4D03230C9A236101339A432260002642E0672FD7
:4064800000D193E1472F00D190E10C9A0021134312AA059211AA0392232223600691019308A9636852180292009332002B0004970998FFF7ECFE20233A0005009A43472AD6
:4064C00000D18EE11199652F00D996E1200001393A0050301191FFF73FFF129A060083182361012A00DD85E12268D20700D581E1232308AA9B181B78002B03D023002D225D
:4065000043331A700B9B13AA009321000A9B099800F0A4F9431C02D1012040429BE12268530501D4236964E0652F00D8CCE0A06CE16C00220023FEF77FF800282CD001232F
:40654000794A0A9909980B9DA847431CE4D0119B129A934208DB2368DB0705D4236800259B0700D50FE113E10B9D0E9B0D9A0A990998A8470025431CCED0129B013B9D42F4
:40658000ECDA220001231A320A9909980B9EB047431CC1D00135F0E7119B002B2BDC0123614A0A9909980B9EB047431CB4D0119B002B05D1129B002B02D12368DB07CDD5C7
:4065C0000B9E0E9B0D9A0A990998B0470026431CA2D0119B5B429E420ADA220001231A320A9909980B9FB847431C95D00136F0E7129B2A00ACE0A36D129E9E4200DD1E0014
:40660000002E05DC00230C93F343DB170F9315E033002A000A9909980B9FB847431CF1D17AE7220001231A320A9909980B9FB847431C00D170E70C9B01330C930F9BA26DC5
:406640000C993340D31A9942EBDBAE18119B129A93420DDB2368DB070AD4129B119AED18AD1B9B1A9D4200DD1D00002D09DC11E00E9B0D9A0A9909980B9FB847431CECD13F
:406680004AE72B0032000A9909980B9EB047431C00D141E7EF43FB1700260C930AE0220001231A320A9909980B9FB847431C00D132E70136119A129B0C999B1A2A000A40F8
:4066C0009B1A9E42EBDB49E7129B012B02DC01231A4245D001232A000A9909980B9FB847431C00D118E70E9B0D9A0A9909980B9FB847431C00D10FE7A06CE16C0022002358
:40670000FDF79AFF002801D000251AE0129B6A1C013B26E0FFFFEF7F1CA4001018A4001024A4001020A4001028A40010220001231A320A9909980B9FB847431C00D1EBE62F
:406740000135129B013B9D42F0DB2200330050320A9909980B9DA847431C00D0FEE6DBE62A000A9909980B9DA847431CEDD1D3E62200012319320A9909980B9EB047431C1B
:4067800000D1C9E60135E368139A9B1A9D42EFDB139BE06898425EDA18005CE080236268DB00511C00D06AE6073202E0002A02D10122626069E60C9908A80B4300210691F5
:4067C00012A9059111A90391232109182360019300922B000497029132000998FFF757FD0500119BDA1C02DB626893421CDD023FFFB267E6013323617AE6662F15D16368BD
:40680000002909DD2161002B02D12268D2071ED50133591821611AE0002B03D101222168114213D09A1C11E06727119B129A934206DB22682361D20709D50133236106E0CB
:406840000121002B01DC4918C91A8A182261119B0026A3654CE615B0F0BDC046F7B5170001938A680B6900900C00934200DA130022003B6043321278002A01D001333B6060
:4068800023689B0602D53B6802333B60062523681D401ED0230043331B785A1E9341226892061CD53020E1184331087021005A1C45310978A2184332023311700FE022001D
:4068C0000123193201990098089EB047431C0ED00135E3683A689B1A9D42F0DBDAE72200019943320098089DA847431C02D10120404220E006232068E1683A6803400025A4
:40690000042B03D18D1AEB43DB171D40A3682269934201DD9B1AED180027BD420AD0220001231A3201990098089EB047431CDED00137F2E70020FEBDF0B58BB006920A0051
:4069400043320793059004920A7E0C00109B6E2A00D1ABE011D8632A22D009D8002A00D1B5E0582A00D0C5E045310A70814A4FE0642A1DD0692A1BD0BCE0732A00D1AAE063
:4069800009D86F2A29D0702A00D0B3E0202209680A43226037E0752A1FD0782A33D0A9E00E001A684236111D196013683370A4E021681A68080606D4490604D5111D1960FF
:4069C0000023D55E02E0111D19601568002D3BDA2D23049A6D42137036E021681A68080606D4490604D51568111D1960ADB202E0111D196015685F4B227E039308276F2A77
:406A00001DD00A271BE022007821453211705A4A19680392081D226818600D68100602D4500600D5ADB2D30702D520231A4322601027002D03D1202322689A432260230064
:406A4000002243331A7002E00A274A4B03936368A360002B09DB0422216891432160002D05D1049E002B11D07BE0002D79D0049E28003900FDF7CAFD039B013E5B5C2800D9
:406A800033703900FDF73CFD051EF1D1082F09D12368DB0706D563682269934202DC3023013E3370049B9B1B23612BE009681A68080607D4490605D5111D19601368A28A1A
:406AC0001A8004E0111D1960136862691A600023049E236116E01A68111D1960166800216268300001F04EF9002801D0801B6060636803E02600423632700123236100236B
:406B0000049A1370079B09AA00932100069B0598FFF7A4FE431C02D10120404227E02369320006990598079DA847431CF4D0236800259B070FD4099BE068984217DA1800C5
:406B400015E022000123193206990598079EB047431CE1D00135E368099A9B1A9D42F0DBE9E72600039B42361B7833708EE70BB0F0BDC0462AA400103BA40010F0B51D0070
:406B8000514B85B01E6804000F000092002E05D0B369002B02D1300001F02CF84B4B9C4201D1746808E04A4B9C4201D1B46803E0484B9C4200D1F468009B022B05D0012BC2
:406BC00000D97CE0002D00DA79E02100300000F0A3FF616B002908D023004433994202D0300001F0D3FB002363630023A3616360A3891B0603D52169300001F0C7FBA2898A
:406C0000354B1340A381009B022B21D003AB02AA2100300001F086F8A3891843A081002D01D1029D01E0002F25D1280001F0A0F80195071E1AD1029B0193AB4202D10120D5
:406C4000404206E0019801F093F8071E0ED1F6E700200222A3891343A3810023A3602300473323602361012363612AE08022A389019D1343A381B369002B02D1300000F0F0
:406C8000B9FF009B012B03D1A389009A1A43A2810823A2892760134027616561181E0CD001231A40002310009A4204D06D42A360A561180005E0A56003E0A36001E00120A8
:406CC000404205B0F0BDC046400100085CA400107CA400109CA400105CF3FFFF0CB430B5164B9DB00C1E1D6804DA8B2301202B6040421DE0822302A99B008B81002302901F
:406D000008619C4200D0631E8B604B6101235B42CB81209A21AB2800019301F045FC431C01DA8B232B60002C02D00023029A13701DB030BC08BC02B01847C0464001000813
:406D40000023C25C0133002AFBD1581E7047030030B5002A0DD00C7801335D1E013A2C700131002CF5D19A189A4202D01C700133FAE730BDF0B503690C6989B00700059114
:406D800000269C4279DC0B00013C1433A50003935B1904930300143302935D19049B28681B68591C0193FDF7ABFB0190B04233D0039B02989C460696634604CB9C46019BC9
:406DC00091B25943120C5A4389190B0CD3180793069A1E0C038889B29B1802685B1A110C6A46928B8A1A1914521811149BB21204134308C0049B06916345DDD22B68002B83
:406E00000AD1029B043DAB4201D33C6104E02B68002BFAD1013CF4E70599380001F0CEF9002829DB0020019B02990133039A019340CA0B881818B3B2C31A0868360C000C73
:406E4000801B1D14451928149BB22D042B4308C1049B9342ECD2029AA300D3181A68002A0AD1029A043B9A4201D33C6104E01A68002AFAD1013CF4E7019E300009B0F0BD44
:406E8000F0B516001F00446A9DB00490259D06960797002C08D1102000F06AFF049B5862446084600460C460049B5B6A196800290BD05A68012393404A608B60049800F0B3
:406EC000A4FF0022049B5B6A1A60079B002B05DA01232B607B005B08079301E000232B60079CC84B220019931A409A4219D1C64B249A1360069AC54B002A02D1240300D102
:406F0000C34B269A1800002A01D100F07DFDD978DA1C002900D00532269918000A6000F073FD069E079F0022002330003900FDF783FB051E0ED00123249A1360B54B269A6D
:406F40001800002A01D100F05FFDB34A26990A6000F05AFD1AAB01931BAB009332003B00049801F0B1F9630005905B0D09D03A03AA4C120B1443AA4A300021009E18179567
:406F80001AE01A9B1B9A9E18A64BF318202B08DDA54A0698B218D0404022D31A9C40204303E020220698D31A9840FFF709F901239E4C013E0919179300229D4BFEF734FDCD
:406FC0009C4A9D4BFEF7B6FA9C4A9D4BFDF762FB040030000D00FFF7B1F89A4A9A4BFEF7A9FA02000B0020002900FDF753FB04000D00FFF76DF80022039000232000290099
:40700000FDF720FB00280DD00398FFF797F802000B0020002900FDF70FFB43424341039AD31A039301231693039B162B11D88749DB00C91808684968069A079BFDF716FB16
:40704000002805D0039B013B03930023169300E016901A9B9E1B00230B93013E0C9604D50C9B5B420B9300230C93039B002B08DB039A0C9B944663440C9300231192089353
:4070800007E00B9B039A9B1A0B935342089300231193229B0125092B25D8052B02DD0025043B2293229B981E032824D801F082FC060E0204012302E0012308E00023109325
:4070C000239B002B20DD1F000A9321E00023239A1093039B9F187B1C0A930123FA18002A16DD130014E0012700237F42229310950A97123305E0012701237F4210930A9705
:4071000011330022239203E001273B000A972397049A546A00226260043211001431994204D86168520001316160F6E76168049800F033FE049B20605B6A1B680D930A9BF3
:407140000E2B00D981E1002D00D17EE1069B079C14931594039B002B31DD0F223B491340DB00CB185C681B680E930F94039B02241D11EB060AD514981599354B15401A6A0D
:407180005B6AFDF7B3FD069007910134304E002D0ED001231D4208D00E980F99E41832687368FEF7C7F90E900F916D100836EEE70E9A0F9B06980799FDF798FD4CE0039BFA
:4071C00002245D42002D49D0149815990F231F4A2B40DB00D3181A685B68FEF7ABF90023069007911A4E2D11002D33D00122154205D0A41832687368FEF79CF901236D10AE
:407200000836F1E70000F07F0F27000055A400104CA4001028A4001029A400100000F03F01FCFFFF3204000012040000000010FE0000F83F61436F63A787D23FB3C8608BFB
